:020000040000FA
:020000000E28C8
:10000800FE00030E83120313B4000A08B5007F082C
:10001800B600BB280F2883134530840051306E2268
:100028008301762A83120313BF003F08031DBA1FFA
:100038002D283709C1003809C2003909C3003A0917
:10004800C400C10A0319C20A0319C30A0319C40A5E
:1000580035283A08C4003908C3003808C2003708F0
:10006800C1003A08390438043704031D4428003015
:10007800BA000030B9000030B8000030B7000800FE
:100088009630BB003B08C000FE30440503197528B4
:100098000130BB003B08C00701300310C40CC30C7F
:1000A800C20CC10CFF3E031D512848280130BB007B
:1000B8003B08C0070130C107003003180130C207F0
:1000C800003003180130C307003003180130C4079B
:1000D80001300310C40CC30CC20CC10CFF3E031D3D
:1000E8006D28FF304405031989285A280230400238
:1000F800031C8B280130C0020130BB000310C10D66
:10010800C20DC30DC40DBB0B8228C31F7A2840182B
:100118009528FF30C105FF30C2057F30C305FF3089
:10012800C4050310C00C4008BB00BC01BD01BE01E2
:1001380018300310BB0DBC0DBD0DBE0DFF3E031DD9
:100148009D283B08C1043C08C2043D08C3043E087E
:10015800C4043F08031DBA1FB228C4174408BA00D4
:100168004308B9004208B8004108B70008008B1AD4
:100178000B1DC5280B110030CF070318D00A01301A
:10018800D007831603138C1C4329831203138C1C7A
:1001980043298C100130C9070318CA0A0030CA075E
:1001A8004A08803AFF0083307F02031DDD28E830CB
:1001B8004902031C43298312031301084F07AE00A9
:1001C80050080318500AAF002E08CD002F08CE00A3
:1001D8000030A3000030A2000030A1000430A000CD
:1001E8004B084D02AE004C08031C4C0A4E02AF00EF
:1001F8002E08B0002F08B1000030B11BFF30B2004C
:10020800B3004808F3004708F2004608F100450823
:10021800F0000030F7000030F6000030F500033041
:10022800F4002022700883120313B0077108031822
:10023800710F1F292029B10772080318720F252989
:100248002629B20773080318730AB3073308A700EF
:100258003208A6003108A5003008A4004E218312F8
:1002680003132308C8002208C7002108C600200875
:10027800C5004E08CC004D08CB00C901CA01831245
:1002880003133608FF0035088A00340E8300FE0E7B
:100298007E0E090083120313A901A31F6029A00978
:1002A800A109A209A309A00A0319A10A0319A20A0C
:1002B8000319A30AA901A90AA71F7129A409A50955
:1002C800A609A709A40A0319A50A0319A60A031966
:1002D800A70A0130FD007D08A9060030AD000030F6
:1002E800AC000030AB000030AA002308220421042F
:1002F80020040319C629A801A80AA31B91290130C3
:10030800FD000310A00DA10DA20DA30DFD0B852965
:100318000130FD007D08A80781290130FD00031088
:10032800AA0DAB0DAC0DAD0DFD0B932923082702CB
:10033800031DA82922082602031DA8292108250231
:10034800031DA82920082402031CB9292008A40297
:100358002108031C210FA5022208031C220FA60254
:100368002308031C230FA7022A1401300310A30C2F
:10037800A20CA10CA00CFF3E031DBA290130A80253
:10038800031D912929080319D429AA09AB09AC0925
:10039800AD09AA0A0319AB0A0319AC0A0319AD0A75
:1003A8002D08A3002C08A2002B08A1002A08A000F1
:1003B8000800073083160313810481150112811682
:1003C80081178B130B178B160B118C1483120313C5
:1003D8008C1007309F0430308316031385000F30CC
:1003E80083120313850083160313860183120313F4
:1003F800860181011208FC390138920012088739F8
:100408004838920012157C30831603139200831229
:100418000313CF01D0018101CD01CE01CB01CC0165
:10042800C901CA010030C8000030C7000030C6004A
:100438000030C5008B1708000030FC000030FB00BE
:100448000030FA000030F900701C3E2A7408F907E1
:10045800750803110318013E031DFA0776080311F6
:100468000318013E031DFB07770803110318013E1B
:10047800031DFC070130F8000310F40DF50DF60D0F
:10048800F70DF80B402A01300310F30CF20CF10CB5
:10049800F00CFF3E031D482A7308720471047004AF
:1004A800031D282A7C08F3007B08F2007A08F10073
:1004B8007908F00008008B13831203134808BA0068
:1004C8004708B9004608B8004508B70001301620AB
:1004D8008B17080064008001840A0406031900349D
:0A04E80004066F2ADD215F22772A47
:02400E00623F0F
:00000001FF
