:020000040000FA
:020000000A28CC
:10000800FE00030EF0000A08F10039280B288301CE
:1000180056280730831603138104811501128116AF
:1000280081178B130B178B160B118C148312031368
:100038008C1030308316031385000F30831203139E
:10004800850083160313860101308312031386008B
:1000580081011208FC3901389200120887394838A2
:100068009200121507309F0408008B1E3C283D287B
:1000780042280B1D4028412842280B1183160313E0
:100088008C1C472848284F28831203138C1C4D28A2
:100098004E284F288C1071088A00700E8300FE0EBF
:0E00A8007E0E09000D205A2057280A28080055
:02400E00E23F8F
:00000001FF
