:020000040000FA
:020000000E28C8
:10000800FE00030E83120313B1000A08B2007F0832
:10001800B300C0290F288313423084005430C4250C
:100028008301CC2D831603138C1083120313450808
:1000380083160313B50083120313440883160313AE
:10004800B40083120313430883160313B300831207
:100058000313420883160313B2008C140030A30064
:100068000030A2000030A1000A30A0003508A70027
:100078003408A6003308A5003208A400AF2383166D
:1000880003132108B1002008B000053083120313C0
:10009800BC000030BD00831603133108831203131C
:1000A800BF0083160313300883120313BE00003009
:1000B800C000C1004F24073083160313AF007C3003
:1000C800AE00AE0B6528AF0B65286A280030831692
:1000D8000313A3000030A2000030A1000A30A000E2
:1000E8003508A7003408A6003308A5003208A40084
:1000F800FE22831603132308B5002208B400210842
:10010800B3002008B2000030A3000030A200003085
:10011800A1000A30A0003508A7003408A60033085B
:10012800A5003208A400AF23831603132108B100E9
:100138002008B000043083120313BC000030BD0057
:1001480083160313310883120313BF0083160313A6
:10015800300883120313BE000030C000C1004F24D2
:10016800073083160313AF007C30AE00AE0BBA28FD
:10017800AF0BBA28BF28003083160313A300003042
:10018800A2000030A1000A30A0003508A7003408FA
:10019800A6003308A5003208A400FE228316031324
:1001A8002308B5002208B4002108B3002008B200D3
:1001B8000030A3000030A2000030A1000A30A000E7
:1001C8003508A7003408A6003308A5003208A400A3
:1001D800AF23831603132108B1002008B0000330B1
:1001E80083120313BC000030BD00831603133108CB
:1001F80083120313BF0083160313300883120313FB
:10020800BE000130C0000030C1004F240730831603
:100218000313AF007C30AE00AE0B1029AF0B1029D2
:100228001529003083160313A3000030A200003004
:10023800A1000A30A0003508A7003408A60033083A
:10024800A5003208A400FE22831603132308B50074
:100258002208B4002108B3002008B2000030A3002F
:100268000030A2000030A1000A30A0003508A70025
:100278003408A6003308A5003208A400AF2383166B
:1002880003132108B1002008B000023083120313C1
:10029800BC000030BD00831603133108831203131A
:1002A800BF0083160313300883120313BE00003007
:1002B800C000C1004F24073083160313AF007C3001
:1002C800AE00AE0B6529AF0B65296A29003083168D
:1002D8000313A3000030A2000030A1000A30A000E0
:1002E8003508A7003408A6003308A5003208A40082
:1002F800FE22831603132308B5002208B400210840
:10030800B3002008B2000030A3000030A200003083
:10031800A1000A30A0003508A7003408A600330859
:10032800A5003208A400AF23831603132108B100E7
:100338002008B000013083120313BC000030BD0058
:1003480083160313310883120313BF0083160313A4
:10035800300883120313BE000030C000C1004F24D0
:10036800073083160313AF007C30AE00AE0BBA29FA
:10037800AF0BBA29BF2908008B1EC329C429D72966
:100388000B1DC729C829D7290B110030CE0701300A
:1003980003180230CF07003003180130D0070030AF
:1003A80003180130D107831603138C1CDC29DD29BF
:1003B800F32A831203138C1CE229E329F32A8C10F5
:1003C8000130D2070318D30A0030D3075308803A04
:1003D800FF0081307F02031DF329F4305202031C11
:1003E800F629F729F32A8312031301084E07F000B0
:1003F8004F0803184F0F0310F10050080318500F4F
:100408000310F20051080318510AF3000030F700F6
:100418000030F6000030F500C830F4007E2573087F
:1004280083120313CD007208CC007108CB0070084A
:10043800CA004A08AD004B08AE004C08AF004D0892
:10044800B0004608AD024708031C470F2C2A2D2A86
:10045800AE024808031C480F322A332AAF02490863
:10046800031C490F382A392AB0023008BB002F086C
:10047800BA002E08B9002D08B8004508A3004408A2
:10048800A2004308A1004208A0003B08F3003A0874
:10049800F2003908F1003808F0000030F7000030A9
:1004A800F6000030F5006430F4007E2573088312EE
:1004B8000313A7007208A6007108A5007008A4001D
:1004C800C224831203132308B7002208B6002108A8
:1004D800B5002008B4003708031D7F2A3608031D1D
:1004E8007F2A3508031D7F2A66303402031D7C2AC3
:1004F80003187F2A802A932A831203133708031DBF
:10050800922A3608031D922A3508031D922A633061
:100518003402031D8F2A0318922A932A9E2A8312D3
:1005280003133B08C5003A08C4003908C30038085B
:10053800C200E92A003083120313A3000030A2008E
:100548000030A1000A30A0004508F3004408F2007A
:100558004308F1004208F0000030F7000030F600D0
:100568000030F5000930F4007E257008831203136B
:100578003807AD000030031801307107AF010318C8
:10058800AF0A3907AE000318AF0A72082F07B00187
:100598000318B00A3A07AF000318B00A7308300707
:1005A8003B07B0003008A7002F08A6002E08A500BA
:1005B8002D08A400C224831203132308C5002208AF
:1005C800C4002108C3002008C2004D08C9004C0817
:1005D800C8004B08C7004A08C600D201D3018312DD
:1005E80003133308FF0032088A00310E8300FE0E21
:1005F8007E0E090083160313A901A31F042B052BE4
:10060800122BA009A109A209A309A00A0319A10A8A
:100618000319A20A0319A30AA901A90AA71F152BDE
:10062800162B292BA409A509A609A709A40A0319A9
:10063800A50A0319A60A0319A70A0130831203138E
:10064800BC003C0883160313A9060030AD00003037
:10065800AC000030AB000030AA00230822042104BB
:1006680020040319382B392B962BA801A80A512BE3
:10067800013083120313BC00031083160313A00D6B
:10068800A10DA20DA30D83120313BC0B402B013047
:10069800BC003C0883160313A807A31F542B552B33
:1006A8003C2B013083120313BC0003108316031381
:1006B800AA0DAB0DAC0DAD0D83120313BC0B592B5A
:1006C8008316031323082702031D742B220826020E
:1006D800031D742B21082502031D742B20082402F6
:1006E800031C772B782B872B2008A4022108031CD6
:1006F800210FA5022208031C220FA6022308031CAF
:10070800230FA7022A1401300310A30CA20CA10C7A
:10071800A00CFF3E031D882B0130A802031D952B5A
:10072800962B552B290803199A2B9B2BA62BAA0924
:10073800AB09AC09AD09AA0A0319AB0A0319AC0A3B
:100748000319AD0A2D08A3002C08A2002B08A1004C
:100758002A08A000080083120313BE01831603139E
:10076800A71FB72BB82BC72BA409A509A609A7094A
:10077800A40A0319A50A0319A60A0319A70A8312CA
:100788000313BE01BE0A83160313A31FCC2BCD2B64
:10079800D82BA009A109A209A309A00A0319A10A33
:1007A8000319A20A0319A30A230822042104200416
:1007B8000319DF2BE02B312C83120313BD01BD0A73
:1007C800F82B013083120313BC00031083160313A4
:1007D800A00DA10DA20DA30D83120313BC0BE92BD1
:1007E8000130BC003C08BD0783160313A31FFD2B73
:1007F800FE2BE52B8316031323082702031D0E2C5B
:1008080022082602031D0E2C21082502031D0E2C8A
:1008180020082402031C112C122C202C2008A402CE
:100828002108031C210FA5022208031C220FA6027F
:100838002308031C230FA70201300310A30CA20CEA
:10084800A10CA00CFF3E031D212C013083120313C1
:10085800BD02031D302C312CFE2B83123E080319D8
:10086800362C372C442C83160313A409A509A60992
:10087800A709A40A0319A50A0319A60A0319A70AAE
:10088800831603132708A3002608A2002508A10041
:100898002408A0000800831203138601622C073085
:1008A8008500952C0B308500952C0E308500952CF5
:1008B8000D308500952C0F308500952C3D08003AA9
:1008C8000319672C5F2C3C08013A0319532C033A8F
:1008D8000319562C013A0319592C073A03195C2CB1
:1008E8005F2CDD308600BA2C84308600BA2CE930C3
:1008F8008600BA2CE5308600BA2CB4308600BA2CB3
:1009080075308600BA2C7D308600BA2CC43086003B
:10091800BA2CFD308600BA2CF5308600BA2C860138
:10092800BA2C3F08003A03199A2C932C3E08003A37
:100938000319752C013A0319782C033A03197B2CF7
:10094800013A03197E2C073A0319812C013A03193D
:10095800842C033A0319872C013A03198A2C0F3A7D
:1009680003198D2C013A0319902C932C400841044B
:100978000319BF2CC02CC12C861408000030831228
:100988000313AB000030AA000030A9000030A80013
:1009980023082204210420040319D32CD42C212D4C
:1009A800AC01AC0AE42C0130FD000310A00DA10D30
:1009B800A20DA30DFD0BD92C0130FD007D08AC075D
:1009C800A31FE72CE82CD72C0130FD000310A80D3D
:1009D800A90DAA0DAB0DFD0BEA2C23082702031D58
:1009E800FF2C22082602031DFF2C21082502031DC7
:1009F800FF2C20082402031C022D032D122D200891
:100A0800A4022108031C210FA5022208031C220F9F
:100A1800A6022308031C230FA70228140130031081
:100A2800A30CA20CA10CA00CFF3E031D132D01303A
:100A3800AC02031D202D212DE82C2B08A3002A0829
:100A4800A2002908A1002808A00008000730831682
:100A58000313810481150112811681178B130B175B
:100A68008B160B118C14831203138C1007309F0400
:100A780030308316031385000F308312031385006B
:100A88008316031386018312031386011208FC39A7
:100A980001389200120887394838920012157C30C4
:100AA800831603139200003083120313D100003021
:100AB800D0000030CF000030CE0081010030CD00E2
:100AC8000030CC000030CB000030CA000030C90034
:100AD8000030C8000030C7000030C600D201D30182
:100AE8000030C5000030C4000030C3000030C20030
:100AF8008B1708000030FC000030FB000030FA00C3
:100B08000030F900701C892D8A2DA12D7408F90771
:100B1800750803110318013E0319932DFA07760887
:100B280003110318013E03199A2DFB0777080311D7
:100B38000318013E0319A12DFC070130F80003102A
:100B4800F40DF50DF60DF70DF80BA32D013003107C
:100B5800F30CF20CF10CF00CFF3E031DAB2D7308E7
:100B6800720471047004031DBA2DBB2D862D7C08F8
:100B7800F3007B08F2007A08F1007908F000080019
:100B880064008001840A0406031900340406C52D94
:080B98002A251620CD2D0E28A0
:02400E00623F0F
:00000001FF
