:020000040000FA
:020000000E28C8
:10000800FE00030E83120313B9000A08BA007F0822
:10001800BB001A280F288313483084006830A327B0
:10002800BC308400CC30A3278301772F8B1E1D287A
:100038001E2831280B1D2128222831280B110030B9
:10004800DC07013003180230DD07003003180130E7
:10005800DE07003003180130DF07831603138C1CFA
:1000680036283728CF2A831203138C1C3C283D28B6
:10007800CF2A8C100130E0070318E10A0030E107AD
:100088006108803AFF0081307F02031D4D28F4305B
:100098006002031C502851287E29831203135C0830
:1000A800AD005D08AE005E08AF005F08B000010853
:1000B800B100B201B301B4013108AD073208031829
:1000C800320F67286828AE0733080318330F6D28E6
:1000D8006E28AF0734080318340AB00703102D0D33
:1000E800D8002E0DD9002F0DDA00300DDB0058088E
:1000F800AD005908AE005A08AF005B08B0005408BC
:10010800AD025508031C550F8A288B28AE025608E5
:10011800031C560F90289128AF025708031C570F4D
:1001280096289728B0023008C3002F08C2002E086E
:10013800C1002D08C0004B08A3004A08A2004908C6
:10014800A1004808A0004308F3004208F200410853
:10015800F1004008F0000030F7000030F6000030F1
:10016800F5006430F4003127730883120313A700E5
:100178007208A6007108A5007008A4001F26831243
:1001880003132308C7002208C6002108C500200859
:10019800C4004308CB004208CA004108C90040080F
:1001A800C8004708031DE5284608031DE52845083B
:1001B800031DE5286A304402031DE2280318E528D8
:1001C800E628F928831203134708031DF828460870
:1001D800031DF8284508031DF8285F304402031D55
:1001E800F5280318F828F928172983120313430858
:1001F800F3004208F2004108F1004008F000003026
:10020800F7000030F6000030F5006430F4003127C4
:10021800730883120313CF007208CE007108CD0053
:100228007008CC007429003083120313A300003037
:10023800A2000030A1000B30A0004F08F3004E08C8
:10024800F2004D08F1004C08F0000030F7000030D3
:10025800F6000030F5000A30F400312770088312E8
:100268000313AD007108AE007208AF007308B00048
:100278004308F3004208F2004108F1004008F0008A
:100288000030F7000030F6000030F5006430F4006C
:100298003127700883120313AD0771080318710F13
:1002A80056295729AE0772080318720F5C295D2971
:1002B800AF0773080318730AB0073008A7002F08A0
:1002C800A6002E08A5002D08A4001F2683120313DC
:1002D8002308CF002208CE002108CD002008CC003A
:1002E8005B08D7005A08D6005908D5005808D4002A
:1002F800E001E101831203134B08031D90294A080A
:10030800031D90294908031D902932304802031D16
:100318008D29031890299129CF2A013083120313BC
:10032800E407003003180130E507003003180130F6
:10033800E607003003180130E7070108AD00AE01F9
:1003480063082E06031DAA2962082D060319AD2984
:10035800AE29CF2A6708A3006608A2006508A10095
:100368006408A0000030A7009830A6009630A500C9
:100378008030A4001F26831203132308BF0022081D
:10038800BE002108BD002008BC000030E700003096
:10039800E6000030E5000030E4000108AD00AE01E1
:1003A8002D08E2002E08E3005308A3005208A2001B
:1003B8005108A1005008A0003F08F3003E08F200D1
:1003C8003D08F1003C08F0000030F7000030F6006E
:1003D8000030F5006430F4003127730883120313EA
:1003E800A7007208A6007108A5007008A4001F26BF
:1003F800831203132308C7002208C6002108C5007A
:100408002008C4004708031D162A4608031D162A9B
:100418004508031D162A6F304402031D132A0318CA
:10042800162A172A2A2A831203134708031D292A82
:100438004608031D292A4508031D292A5A30440263
:10044800031D262A0318292A2A2A352A8312031368
:100458003F08D3003E08D2003D08D1003C08D00038
:10046800CF2A003083120313A3000030A2002730E4
:10047800A1001030A0005308A7005208A600510898
:10048800A5005008A4001F26831203132308C700E1
:100498002208C6002108C5002008C4000B30AD00A2
:1004A8000030AE000030AF000030B0004408AD07A7
:1004B80045080318450F612A622AAE074608031843
:1004C800460F672A682AAF0747080318470AB00784
:1004D8003008A3002F08A2002E08A1002D08A000B4
:1004E8000A30B1000030B2000030B3000030B40070
:1004F8004408B10745080318450F832A842AB20720
:1005080046080318460F892A8A2AB307470803189A
:10051800470AB4073408F3003308F2003208F10040
:100528003108F0005308F7005208F6005108F500AA
:100538005008F40031277008831203133C07B500F4
:100548000030031801307107B7010318B70A3D07D7
:10055800B6000318B70A72083707B8010318B80AB3
:100568003E07B7000318B80A730838073F07B800F2
:100578003808A7003708A6003608A5003508A400E3
:100588001F26831203132308D3002208D200210850
:10059800D1002008D000831203133B08FF003A085B
:1005A8008A00390E8300FE0E7E0E0900831603139F
:1005B8002E082F040319E12AE22A2C2B8C1083120F
:1005C80003134B0883160313C700831203134A0847
:1005D80083160313C60083120313490883160313F3
:1005E800C50083120313480883160313C40083123B
:1005F80003134F0883160313C300831203134E0813
:1006080083160313C200831203134D0883160313C2
:10061800C100831203134C0883160313C00083120E
:100628000313530883160313BF00831203135208DE
:1006380083160313BE008312031351088316031392
:10064800BD0083120313500883160313BC008C14D7
:100658004708031D3E2B4608031D3E2B0330450269
:10066800031D3A2BE8304402031D3A2B031C3D2B93
:100678003E2B4F2B831603134708CB004608CA00AE
:100688004508C9004408C800B201B301B401B50166
:10069800B601B701BE2B831603133F08031D632B56
:1006A80001303E02031D602B86303D02031D602B86
:1006B800A0303C02031D602B0318632B642B732BA3
:1006C800831603133F08CB003E08CA003D08C90043
:1006D8003C08C8000130B2000030B3004A2B831632
:1006E80003133F08031D872B07303E02031D842B8D
:1006F800A1303D02031D842B20303C02031D842BB6
:100708000318872B882BAC2B003083160313A30008
:100718000030A2000030A1000A30A0003F08A70066
:100728003E08A6003D08A5003C08A400B72583168E
:1007380003132308CB002208CA002108C900200897
:10074800C800B201B3010130B4000030B5004C2B31
:10075800831603134308CB004208CA004108C900A6
:100768004008C800B201B301B401B5010130B600B8
:100778000030B7000030A3000030A2000030A10014
:100788000A30A0004B08A7004A08A6004908A5009F
:100798004808A4008726831603132108B9002008F7
:1007A800B8000530A0000030A1003908A3003808BF
:1007B800A2000030A400A5001C25073083160313EF
:1007C800B1007C30B000B00BE72BB10BE72BEC2B62
:1007D800003083160313A3000030A2000030A100EC
:1007E8000A30A0004B08A7004A08A6004908A5003F
:1007F8004808A400B725831603132308CB00220852
:10080800CA002108C9002008C8000030A300003031
:10081800A2000030A1000A30A0004B08A7004A0837
:10082800A6004908A5004808A400872683160313D4
:100838002108B9002008B8000430A0000030A10049
:100848003908A3003808A2000030A400A5001C2520
:10085800073083160313B1007C30B000B00B322C84
:10086800B10B322C372C003083160313A300003051
:10087800A2000030A1000A30A0004B08A7004A08D7
:10088800A6004908A5004808A400B7258316031345
:100898002308CB002208CA002108C9002008C80084
:1008A8000030A3000030A2000030A1000A30A000F0
:1008B8004B08A7004A08A6004908A5004808A40054
:1008C8008726831603132108B9002008B8000330CF
:1008D800A0000030A1003908A3003808A20037089A
:1008E800A5003608A4001C25073083160313B100A1
:1008F8007C30B000B00B7E2CB10B7E2C832C0030EA
:1009080083160313A3000030A2000030A1000A30B0
:10091800A0004B08A7004A08A6004908A5004808F7
:10092800A400B725831603132308CB002208CA00A6
:100938002108C9002008C8000030A3000030A20028
:100948000030A1000A30A0004B08A7004A08A60002
:100958004908A5004808A400872683160313210820
:10096800B9002008B8000230A0000030A100390802
:10097800A3003808A2003508A5003408A4001C25E7
:10098800073083160313B1007C30B000B00BCA2CBB
:10099800B10BCA2CCF2C003083160313A3000030F0
:1009A800A2000030A1000A30A0004B08A7004A08A6
:1009B800A6004908A5004808A400B7258316031314
:1009C8002308CB002208CA002108C9002008C80053
:1009D8000030A3000030A2000030A1000A30A000BF
:1009E8004B08A7004A08A6004908A5004808A40023
:1009F8008726831603132108B9002008B8000130A0
:100A0800A0000030A1003908A3003808A20033086C
:100A1800A5003208A4001C25073083160313B10073
:100A28007C30B000B00B162DB10B162D1B2D080015
:100A3800831203138601392D0730831203138500AF
:100A4800842D0B30831203138500842D0E308312FE
:100A580003138500842D0D30831203138500842D24
:100A68000F30831203138500842D83160313210886
:100A7800003A0319402D342D2008013A0319202D7E
:100A8800033A0319252D013A03192A2D073A0319A8
:100A98002F2D342DDD30831203138600AB2D8430C7
:100AA800831203138600AB2DE930831203138600EB
:100AB800AB2DE530831203138600AB2DB4308312BF
:100AC80003138600AB2D7530831203138600AB2DFC
:100AD8007D30831203138600AB2DC43083120313B9
:100AE8008600AB2DFD30831203138600AB2DF53045
:100AF800831203138600AB2D831203138601AB2DDB
:100B0800831603132308003A03198B2D802D22081E
:100B1800003A03194E2D013A0319532D033A0319CC
:100B2800582D013A03195D2D073A0319622D013A30
:100B38000319672D033A03196C2D013A0319712D16
:100B48000F3A0319762D013A03197B2D802D831650
:100B58000313240825040319B22DB32DB62D8312CF
:100B6800031386140800003083160313AC0000300A
:100B7800AB000030AA000030A90023082204210499
:100B880020040319C82DC92D162EAD01AD0AD92D83
:100B98000130A8000310A00DA10DA20DA30DA80BF4
:100BA800CE2D0130A8002808AD07A31FDC2DDD2DB0
:100BB800CC2D0130A8000310A90DAA0DAB0DAC0D6A
:100BC800A80BDF2D23082702031DF42D2208260277
:100BD800031DF42D21082502031DF42D20082402ED
:100BE800031CF72DF82D072E2008A4022108031C4A
:100BF800210FA5022208031C220FA6022308031CAA
:100C0800230FA702291401300310A30CA20CA10C76
:100C1800A00CFF3E031D082E0130AD02031D152E4A
:100C2800162EDD2D2C08A3002B08A2002A08A100EF
:100C38002908A0000800003083120313AB0000301D
:100C4800AA000030A9000030A800230822042104CB
:100C580020040319302E312E7E2EAC01AC0A412E11
:100C68000130FD000310A00DA10DA20DA30DFD0B79
:100C7800362E0130FD007D08AC07A31F442E452EFB
:100C8800342E0130FD000310A80DA90DAA0DAB0DDF
:100C9800FD0B472E23082702031D5C2E220826027F
:100CA800031D5C2E21082502031D5C2E200824024A
:100CB800031C5F2E602E6F2E2008A4022108031C3F
:100CC800210FA5022208031C220FA6022308031CD9
:100CD800230FA702281401300310A30CA20CA10CA7
:100CE800A00CFF3E031D702E0130AC02031D7D2EAB
:100CF8007E2E452E2B08A3002A08A2002908A10051
:100D08002808A000080083160313230822042104DE
:100D180020040319902E912ED42EA901A90AA12EE0
:100D28000130A8000310A00DA10DA20DA30DA80B62
:100D3800962E0130A8002808A907A31FA42EA52EC7
:100D4800942E23082702031DB32E22082602031D12
:100D5800B32E21082502031DB32E20082402031CEC
:100D6800B62EB72EC52E2008A4022108031C210F79
:100D7800A5022208031C220FA6022308031C230F26
:100D8800A70201300310A30CA20CA10CA00CFF3E7B
:100D9800031DC62E0130A902031DD32ED42EA52E65
:100DA8002708A3002608A2002508A1002408A000FF
:100DB8000800073083160313810481150112811678
:100DC80081178B130B178B160B118C1483120313BB
:100DD8008C1007309F0430308316031385000F30C2
:100DE80083120313850083160313860183120313EA
:100DF80086011208FC3901389200120887394838F0
:100E0800920012157C30831603139200003083126F
:100E18000313DF000030DE000030DD000030DC00AE
:100E280081010030DB000030DA000030D9000030EA
:100E3800D8000030D7000030D6000030D500003090
:100E4800D400E001E1010030CF000030CE000030D6
:100E5800CD000030CC008B1708000030FC000030BB
:100E6800FB000030FA000030F900701C3C2F3D2FC9
:100E7800542F7408F907750803110318013E031964
:100E8800462FFA07760803110318013E03194D2F60
:100E9800FB07770803110318013E0319542FFC07B9
:100EA8000130F8000310F40DF50DF60DF70DF80BF1
:100EB800562F01300310F30CF20CF10CF00CFF3E2E
:100EC800031D5E2F7308720471047004031D6D2FD7
:100ED8006E2F392F7C08F3007B08F2007A08F100A6
:100EE8007908F000080083160313BA01BB01DD2658
:100EF800013083160313BA070318BB0A0030BB0777
:100F08003B08803AFF0080307F02031D8D2F64303C
:100F18003A020318902F912F982F0030831603134D
:100F2800AE00AF00DA227C2F83160313BA01BB018F
:100F38000130AE000030AF00DA227C2F0E286400AA
:0E0F48008001840A0406031900340406A42F55
:02400E00623F0F
:00000001FF
