:020000040000FA
:020000000E28C8
:10000800FE00030E83120313A8000A08A9007F0844
:10001800AA0084290F288313423084005430E7242F
:100028008301EF2C831603138C10831203134508E6
:10003800C1004408C0004308BF004208BE00831640
:1000480003138C14003083120313AE000030AD008C
:100058000030AC000A30AB004108B2004008B100E3
:100068003F08B0003E08AF00ED22831203132C08AE
:10007800BD002B08BC000530AB000030AC003D08CB
:10008800AE003C08AD000030AF00B000742307306C
:1000980083120313BB007C30BA00BA0B5128BB0B88
:1000A80051285628003083120313AE000030AD00EB
:1000B8000030AC000A30AB004108B2004008B10083
:1000C8003F08B0003E08AF005022831203132E08E9
:1000D800C1002D08C0002C08BF002B08BE0000304E
:1000E800AE000030AD000030AC000A30AB00410873
:1000F800B2004008B1003F08B0003E08AF00ED2252
:10010800831203132C08BD002B08BC000430AB007D
:100118000030AC003D08AE003C08AD000030AF0038
:10012800B0007423073083120313BB007C30BA007D
:10013800BA0B9C28BB0B9C28A12800308312031300
:10014800AE000030AD000030AC000A30AB00410812
:10015800B2004008B1003F08B0003E08AF0050228E
:10016800831203132E08C1002D08C0002C08BF00FD
:100178002B08BE000030AE000030AD000030AC00EF
:100188000A30AB004108B2004008B1003F08B00097
:100198003E08AF00ED22831203132C08BD002B0884
:1001A800BC000330AB000030AC003D08AE003C089A
:1001B800AD000130AF000030B00074230730831267
:1001C8000313BB007C30BA00BA0BE828BB0BE82845
:1001D800ED28003083120313AE000030AD0000306C
:1001E800AC000A30AB004108B2004008B1003F083B
:1001F800B0003E08AF005022831203132E08C1003E
:100208002D08C0002C08BF002B08BE000030AE002F
:100218000030AD000030AC000A30AB004108B2003D
:100228004008B1003F08B0003E08AF00ED2283123D
:1002380003132C08BD002B08BC000230AB000030B3
:10024800AC003D08AE003C08AD000030AF00B00087
:100258007423073083120313BB007C30BA00BA0B37
:100268003329BB0B33293829003083120313AE001E
:100278000030AD000030AC000A30AB004108B200DD
:100288004008B1003F08B0003E08AF00502283127A
:1002980003132E08C1002D08C0002C08BF002B082E
:1002A800BE000030AE000030AD000030AC000A30B7
:1002B800AB004108B2004008B1003F08B0003E085A
:1002C800AF00ED22831203132C08BD002B08BC00DD
:1002D8000130AB000030AC003D08AE003C08AD007A
:1002E8000030AF00B0007423073083120313BB0043
:1002F8007C30BA00BA0B7E29BB0B7E298329080003
:100308008B1E872988299B290B1D8B298C299B29C2
:100318000B110030CE07013003180230CF07003030
:1003280003180130D007003003180130D1078316B5
:1003380003138C1CA029A129452A831203138C1CA2
:10034800A629A729452A8C100130D2070318D30AF9
:100358000030D3075308803AFF0093307F02031D13
:10036800B72988305202031CBA29BB29452A8312AF
:10037800031301084E07F0004F0803184F0F03102E
:10038800F10050080318500F0310F2005108031829
:10039800510AF3000030F7000030F6000030F50095
:1003A8001430F400A124730883120313CD007208DB
:1003B800CC007108CB007008CA000030F300003090
:1003C800F2000030F1000530F0004208A0004308B8
:1003D800A1004408A2004508A3004A08A4004B084D
:1003E800A5004C08A6004D08A7004608A402470827
:1003F800031C470F002A012AA5024808031C480FBE
:10040800062A072AA6024908031C490F0C2A0D2AA6
:10041800A70202300310A40DA50DA60DA70DFF3EDF
:10042800031D0E2A2408A00725080318250F1D2AD6
:100438001E2AA10726080318260F232A242AA20702
:1004480027080318270AA3072308F7002208F6003D
:100458002108F5002008F400E7237308831203132A
:10046800C5007208C4007108C3007008C2004D08B6
:10047800C9004C08C8004B08C7004A08C600D2018A
:10048800D301831203132A08FF0029088A00280EC3
:100498008300FE0E7E0E090083120313B501AE1F02
:1004A800562A572A642AAB09AC09AD09AE09AB0A2A
:1004B8000319AC0A0319AD0A0319AE0AB501B50A46
:1004C800B21F672A682A772AAF09B009B109B209A9
:1004D800AF0A0319B00A0319B10A0319B20A0130A5
:1004E800B3003308B5060030B9000030B80000305A
:1004F800B7000030B6002E082D042C042B04031975
:10050800862A872AD42AB401B40A972A0130B3006C
:100518000310AB0DAC0DAD0DAE0DB30B8C2A013035
:10052800B3003308B407AE1F9A2A9B2A8A2A0130DF
:10053800B3000310B60DB70DB80DB90DB30B9D2A56
:100548002E083202031DB22A2D083102031DB22AD9
:100558002C083002031DB22A2B082F02031CB52ACF
:10056800B62AC52A2B08AF022C08031C2C0FB00290
:100578002D08031C2D0FB1022E08031C2E0FB202EA
:10058800361401300310AE0CAD0CAC0CAB0CFF3EB6
:10059800031DC62A0130B402031DD32AD42A9B2A7C
:1005A80035080319D82AD92AE42AB609B709B80997
:1005B800B909B60A0319B70A0319B80A0319B90A17
:1005C8003908AE003808AD003708AC003608AB0073
:1005D800080083120313B501B21FF32AF42A012B72
:1005E800AF09B009B109B209AF0A0319B00A031972
:1005F800B10A0319B20AB501B50AAE1F042B052BBF
:10060800102BAB09AC09AD09AE09AB0A0319AC0A4A
:100618000319AD0A0319AE0A2E082D042C042B0465
:100628000319172B182B5B2BB401B40A282B0130A4
:10063800B3000310AB0DAC0DAD0DAE0DB30B1D2B00
:100648000130B3003308B407AE1F2B2B2C2B1B2B08
:100658002E083202031D3A2B2D083102031D3A2BB6
:100668002C083002031D3A2B2B082F02031C3D2BAC
:100678003E2B4C2B2B08AF022C08031C2C0FB0026E
:100688002D08031C2D0FB1022E08031C2E0FB202D9
:1006980001300310AE0CAD0CAC0CAB0CFF3E031DCF
:1006A8004D2B0130B402031D5A2B5B2B2C2B350824
:1006B80003195F2B602B6B2BAF09B009B109B20985
:1006C800AF0A0319B00A0319B10A0319B20A3208AA
:1006D800AE003108AD003008AC002F08AB000800B0
:1006E800831203138601872B07308500BA2B0B3042
:1006F8008500BA2B0E308500BA2B0D308500BA2B39
:100708000F308500BA2B2C08003A03198C2B842B48
:100718002B08013A0319782B033A03197B2B013A6A
:1007280003197E2B073A0319812B842BDD308600B1
:10073800DF2B84308600DF2BE9308600DF2BE530A5
:100748008600DF2BB4308600DF2B75308600DF2B68
:100758007D308600DF2BC4308600DF2BFD3086001D
:10076800DF2BF5308600DF2B8601DF2B2E08003AC1
:100778000319BF2BB82B2D08003A03199A2B013AFD
:1007880003199D2B033A0319A02B013A0319A32B34
:10079800073A0319A62B013A0319A92B033A03199F
:1007A800AC2B013A0319AF2B0F3A0319B22B013ABC
:1007B8000319B52BB82B2F0830040319E42BE52BAC
:1007C800E62B861408000030FC000030FB000030E7
:1007D800FA000030F90073087204710470040319F8
:1007E800F62BF72B442CFD01FD0A072C0130F800ED
:1007F8000310F00DF10DF20DF30DF80BFC2B013089
:10080800F8007808FD07F31F0A2C0B2CFA2B01308F
:10081800F8000310F90DFA0DFB0DFC0DF80B0D2C6B
:1008280073087702031D222C72087602031D222CFE
:1008380071087502031D222C70087402031C252CF4
:10084800262C352C7008F4027108031C710FF50270
:100858007208031C720FF6027308031C730FF70269
:10086800791401300310F30CF20CF10CF00CFF3E7C
:10087800031D362C0130FD02031D432C442C0B2C88
:100888007C08F3007B08F2007A08F1007908F00090
:10089800080007308316031381048115011281169D
:1008A80081178B130B178B160B118C1483120313E0
:1008B8008C1007309F0430308316031385000F30E7
:1008C800831203138500831603138601831203130F
:1008D80086011208FC390138920012088739483815
:1008E800920012157C308316031392000030831295
:1008F8000313D1000030D0000030CF000030CE000C
:1009080081010030CD000030CC000030CB00003039
:10091800CA000030C9000030C8000030C7000030ED
:10092800C600D201D3010030C5000030C400003039
:10093800C3000030C2008B1708000030FC000030F4
:10094800FB000030FA000030F900701CAC2CAD2C14
:10095800C42C7408F907750803110318013E03191C
:10096800B62CFA07760803110318013E0319BD2CAB
:10097800FB07770803110318013E0319C42CFC0771
:100988000130F8000310F40DF50DF60DF70DF80B16
:10099800C62C01300310F30CF20CF10CF00CFF3EE6
:1009A800031DCE2C7308720471047004031DDD2C22
:1009B800DE2CA92C7C08F3007B08F2007A08F100F1
:1009C8007908F000080064008001840A040603190D
:0E09D80000340406E82C4D241620F02C0E28C6
:02400E00623F0F
:00000001FF
